:100000000C942A000C9449000C9447000C9447006F
:100010000C9447000C9447000C9447000C94470044
:100020000C9447000C9447000C9447000C94470034
:100030000C9447000C9447000C9447000C94470024
:100040000C9447000C9447000C9447000C94470014
:100050000C94470011241FBECFE5D8E0DEBFCDBF12
:1000600010E0A0E6B0E0EAE6F1E002C005900D92F3
:10007000AA36B107D9F710E0AAE6B0E001C01D9298
:10008000AB36B107E1F70E945F000C94B3000C940B
:1000900000001F920F920FB60F9211248F93809140
:1000A0006A00882321F481E080936A0002C01092E4
:1000B0006A008F910F900FBE0F901F901895DF93DD
:1000C000CF93CDB7DEB72A970FB6F894DEBF0FBE39
:1000D000CDBF8FEF87BB8A9885B7836085BF8BB70D
:1000E00080648BBFDE011196E0E6F0E08AE00190CB
:1000F0000D928150E1F7789420E0BE016F5F7F4F51
:1001000048EC50E080916A00882389F4FB01E20FFB
:10011000F11D808188BB2F5F2A3008F020E088EE37
:1001200093E0FA013197F1F70197D9F7EBCF21501E
:10013000FB01E20FF11D808188BB222309F42AE034
:1001400088EE93E0FA013197F1F70197D9F7DACF0A
:100150008FEF87BB8A98089585B7836085BF8BB77B
:0A01600080648BBF0895F894FFCF70
:0A016A003F065B4F666D7D077F6F57
:00000001FF
